:02000000D72FF8
:08000800FF00030EFC000A0ECC
:0C001000FD00040EFE008A150A122328D1
:1000200000000000D00B10280800CC08031D192880
:100030000800F9300000000000000000000000008F
:1000400000000000000000000000000000000000B0
:1000500000000000FF3E031D1A2800000000000001
:100060000000000000000000000000000000000090
:10007000000000000000000000000000CC0B192868
:1000800008004F08831203178D0083160C14831287
:100090000C0883160313D0000800D201D501D60145
:1000A0004C08D3004D08D400521A08004E1C5E289C
:1000B0005308D50754080318540FD6070310CF0C64
:1000C000CE0C0310D30DD40DD20A5428CE01CF018B
:1000D00002304F02031808006400CF080319752886
:1000E000220E4D060F39CE007A2822084D06F0392F
:1000F000CE00CE0E220EF039A200230E0F39A20739
:10010000230EF039A300CF0A831283135C308400DE
:1001100083164E08840700082206A2008312831368
:100120006C30840083164E08840700082306A30061
:100130006828CE01CC080319A02883120711A22831
:10014000831207158316CD010A304D020318C62805
:100150004D08023C0318C1288312871FB2280130C2
:100160008316CE0083164C084E060319C12883124D
:100170000711831607178312981701308316CF00D3
:1001800008001430D0001020CD0AA428CF010800A8
:100190004D08831203178D00831603134E08831234
:1001A00003178C0083168C130C158B135530031317
:1001B0008D00AA308D008C148B1703178C1CE2283D
:1001C0006400DD280C1103134D08CF0041205008B6
:1001D000CF000800B318F9284D084D3A031DF32845
:1001E00083128914F9284D08443A031DF928831213
:1001F00009158316331809294F084D3A031D0329A1
:100200008312871409294F08443A031D09298312D0
:10021000871583164E08453A031D1729B318172969
:10022000F0303505D10001305104B5002A294E08BF
:10023000573A031D2429B3182429F0303505D1007D
:1002400002305104B5002A29CE0803192A29F030BA
:100250003505B5005008453A031D372933183729AD
:100260000F303505D10010305104B5004A2950082F
:10027000573A031D4429331844290F303505D1005E
:1002800020305104B5004A29D00803194A290F30FB
:100290003505B500831289100911871087110800F0
:1002A000043083160313AF00B000B100B200F03089
:1002B0003505203A031D83298312071C71298316F3
:1002C00033082139031967290430B10008003308C5
:1002D000103903196E290230B10008000130B10055
:1002E0000800831633082139031979290430B20034
:1002F000080033081039031980290230B2000800C1
:100300000130B2000800F0303505103A031D080036
:100310008312071CAC298316330809390319932962
:100320000430AF00080033088239031DA529831269
:10033000091CA5290F3083163505C800C9014803DB
:100340000319C90AC908031DA92902308316AF0081
:1003500008000130AF00080083163308053903197F
:10036000B4290430B000080033088239031DC629BF
:1003700083120918C6290F3083163505C800C90134
:1003800048030319C90AC908031DCA290230831684
:10039000B00008000230B0000800831603133203D7
:1003A000031DD629831288120816E9293208023A59
:1003B000031DDE29831288160816E9293208043A3B
:1003C000031DE629831288160812E9298312881270
:1003D000081283163103031DF129831288130817AD
:1003E000042A3108023A031DF929831288170817D5
:1003F000042A3108043A031D012A831288170813BE
:10040000042A83128813081383162F03031D0C2A52
:100410008312881108151F2A2F08023A031D142A77
:100420008312881508151F2A2F08043A031D1C2A59
:100430008312881508111F2A831288110811831648
:100440003003031D272A8312881008143A2A300823
:10045000023A031D2F2A8312881408143A2A3008FE
:10046000043A031D372A8312881408103A2A83128B
:100470008810081083162E03031D422A8312861249
:100480000616552A2E08023A031D4A2A831286169A
:100490000616552A2E08043A031D522A8312861680
:1004A0000612552A83128612061283162D03031D87
:1004B0005D2A831286130617702A2D08023A031D3F
:1004C000652A831286170617702A2D08043A031D21
:1004D0006D2A831286170613702A83128613061359
:1004E00083162B03031D782A8312861106158B2A87
:1004F0002B08023A031D802A8312861506158B2AC3
:100500002B08043A031D882A8312861506118B2AAC
:1005100083128611061183162C03031D932A83125E
:100520008610061408002C08023A031D9B2A831229
:100530008614061408002C08043A031DA32A83120B
:100540008614061008008312861006100800043076
:1005500083160313AB00AC00AD00AE000F303505C1
:10056000C8004803031DDB2A8312091CC92A83160D
:10057000330882390319BF2A0430AD00080033085C
:1005800040390319C62A0230AD0008000130AD0021
:1005900008008316330882390319D12A0430AE00CB
:1005A0000800330840390319D82A0230AE00080089
:1005B0000130AE0008000F303505023A031D080077
:1005C0008312091C052B831633080A390319EB2AF9
:1005D0000430AB00080033082139031DFE2A8312C2
:1005E000071CFE2AF03083163505C900CA012030E9
:1005F00049020319CA0ACA08031D022B02308316D6
:10060000AB0008000130AB00080083163308063940
:1006100003190D2B0430AC00080033082139031DE9
:10062000202B83120718202BF03083163505C900C4
:10063000CA01203049020319CA0ACA08031D242B23
:1006400002308316AC0008000230AC0008008316AC
:100650000313A201A3012408831221060319BA2C53
:10066000200A0319392B8316240883122006031D40
:10067000BA2C8316C8018312220883164802031875
:10068000552B4808043A0319532B4808033A031919
:10069000532B831283132030840083164808840769
:1006A0000008CD006620C80A3B2B8312240883165D
:1006B0002206031DBA2C8312230883162306031D6A
:1006C000BA2C831225085A3A031D7A2B8316CF01C0
:1006D000412050088312C9002108C8000730CA0011
:1006E0007A30CD0026088400CE01803083162504A0
:1006F000A500BA2C2508573A031D9E2B2108C800D7
:100700000730CA007730CD0026088316CD0083124B
:1007100027088316CE00C8204F088312CE00831608
:10072000CF01412050088312C9008316CF01412018
:100730005008A40080302504A500BA2C2508523AA0
:10074000031DBA2B8316CF01412050088312C90024
:100750002108C8000730CA007230CD002608831671
:10076000CF00412050088312CE008030831625042C
:10077000A500BA2C2508433A031DC92B2608831669
:10078000CD00831227088316CE00CF01D001EA20C6
:10079000BA2C2508423A031DDA2B8316CD01CE016F
:1007A000831226088316CF00831227088316D000F1
:1007B000EA20BA2C8316C801063048020318B62C6A
:1007C00010304807CF0041205008CB004B0883125F
:1007D0002106031DB32C203083164807CF0041208B
:1007E0005008CB004B0883122506031DB32C303074
:1007F00083164807CF0041205008CB00E0304B055E
:10080000CA004A08CD000310CD0C0310CD0C031014
:10081000CD0C0310CD0C0310CD0C07304D05CA00D4
:100820001F304B05CB000130CC00C9014A084902FA
:100830000318212C4C08CD0003104D0DCC00C90A23
:10084000162C831283132030840083164B088407F0
:100850004C080005CA00CA080319712CCE011030DB
:100860004807CD000318CE0A10304D0603194E0874
:100870000319592C11304D0603194E0803195D2C2C
:1008800012304D0603194E080319612C13304D0622
:1008900003194E080319652C14304D0603194E0830
:1008A0000319692C15304D0603194E0803196D2CD8
:1008B000B32C40303304B300B32C40303304B300C6
:1008C000B32C80303304B300B32C10303304B300A6
:1008D000B32C10303304B300B32C20303304B300F6
:1008E000B32CCE0110304807CD000318CE0A1030CB
:1008F0004D0603194E0803199C2C11304D0603199F
:100900004E080319A02C12304D0603194E08031986
:10091000A42C13304D0603194E080319A82C1430CB
:100920004D0603194E080319AC2C15304D0603195A
:100930004E080319B02CB32CBF303305B300B32CD1
:10094000BF303305B300B32C7F303305B300B32C75
:10095000EF303305B300B32CEF303305B300B32CC5
:10096000DF303305B3008316C80ADC2BFE302505C3
:10097000A5000800FE3083162505A5000800831693
:100980000313A201A301831249088316C900A51EFF
:10099000CC2C0130CB0008000C12CA0183124A088B
:1009A00083164A020318E82C4A08033A0319E62C76
:1009B0004A08043A0319E62C831283134830840052
:1009C00083164A0884070008CD006620CA0ACE2C88
:1009D00023088312CB00831622088312CC008316CF
:1009E000A80164000230CC001520A8080319FB2CD4
:1009F0000130CB000800CD012A082907CC000318DC
:100A0000CD0A0A30CE00CF014D205508D00056083F
:100A1000D1000F3049055007C80083120711071392
:100A200083160713831298138316CA0114304A02DF
:100A30000318312D1430D0001020CC01CC0A8312C1
:100A400087080319252D83164C108316CC1F2F2DD4
:100A500007178312981701308316CB000800CA0AC3
:100A6000162DCA0148084A0203184D2D0A30D0003D
:100A70001020CC01CC0A831287080319412D83165C
:100A80004C108316CC1F4B2D07178312981701307B
:100A90008316CB000800CA0A322DCC019920CF085A
:100AA0000319552D0130CB000800CA0108304A0255
:100AB00003186D2D01304905CC0099204F08C8005E
:100AC0004908CC0003104C0CC9004803031D6B2DD2
:100AD0000130CB000800CA0A562D0130CC00992005
:100AE000CF080319762D0130CB0008000130CC006F
:100AF0009920CF0803197F2D0130CB00080007177C
:100B00008312981707158316A101243098008B13C0
:100B10008B1B882D20302504A5008B170C16CB01CC
:100B20000800043083160313980090308312980055
:100B30001530831699000711831207118316871742
:100B400007178312981783168C1608008316031351
:100B5000C5013330C600C7000430AB00AC00AD00A7
:100B6000AE00AF00B000B100B200B301B401B501F6
:100B7000B601A501831289018701FF308316850024
:100B80008601313087008801013089008C01831291
:100B90008C010130870083168D0183128D0183162D
:100BA000B70103178C0183128F0183168801890115
:100BB00083120313850186018316CF01412050085B
:100BC000A400912564008316073081008312E03071
:100BD0008B00B5012B08B8002C08B9002D08BA000D
:100BE0002E08BB002F08BC003008BD003108BE0035
:100BF0003208BF003308C0003508C1003608C20003
:100C0000C501251827230130831209058316CA0060
:100C10000130831207058316C800C9010310C80DEF
:100C2000C90D48084A04B600F0303305C8000F303B
:100C30008312050583164804B300B708031D682E08
:100C40003030831205058316C800480E0F39C900DD
:100C500030308312070583164904C600460847064C
:100C60000319682E47084606C30047084305C3001A
:100C7000431C432E83128914F03083163505B500CA
:100C8000831289104D2EC31C4D2E83120915F0308E
:100C900083163505B500831209118316431E592E9C
:100CA000831287140F3083163505B5008312871021
:100CB000632EC31E632E831287150F3083163505EE
:100CC000B5008312871183164608C7003230B7007B
:100CD000B31C6D2EF0303505B500331C722E0F306D
:100CE0003505B500A7225021CD21640083162B08BD
:100CF0003806031DA32E2C083906031DA32E2D082C
:100D00003A06031DA32E2E083B06031DA32E2F0813
:100D10003C06031DA32E30083D06031DA32E3108FB
:100D20003E06031DA32E32083F06031DA32E3308E3
:100D30004006031DA32E36084206031DA32E3508C8
:100D400041060319BB2E2B08B8002C08B9002D084A
:100D5000BA002E08BB002F08BC003008BD003108C7
:100D6000BE003208BF003308C0003508C100360895
:100D7000C2000130C500C508031DC22E0230270283
:100D8000031CAD2FA0302505031DAD2FCF01412041
:100D900050088312C900FF30C8000D30CA0053301C
:100DA000CD000F3083162E05CD002D08C900CA01D5
:100DB0000310C90DCA0D0310C90DCA0D0310C90DCA
:100DC000CA0D0310C90DCA0DF0304905CB00CC0186
:100DD0004B084D048312CE000F3083162C05CD0036
:100DE0002B08C900CA010310C90DCA0D0310C90D93
:100DF000CA0D0310C90DCA0D0310C90DCA0DF0307C
:100E00004905CB00CC014B084D048312CF000F30B5
:100E100083163205CD003108C900CA010310C90D7F
:100E2000CA0D0310C90DCA0D0310C90DCA0D031058
:100E3000C90DCA0DF0304905CB00CC014B084D045B
:100E40008312D0000F3083163005CD002F08C90063
:100E5000CA010310C90DCA0D0310C90DCA0D031034
:100E6000C90DCA0D0310C90DCA0DF0304905CB00DC
:100E7000CC014B084D048312D10083163308831232
:100E8000D200D301D4010F3083163505C8004803C2
:100E9000031D4F2F013083125304D3005D2F0F30F9
:100EA0003505023A031D592F023083125304D30033
:100EB0005D2F043083125304D300F03083163505C0
:100EC000103A031D682F013083125404D400762F8A
:100ED000F0303505203A031D722F0230831254047E
:100EE000D400762F043083125404D400091C7C2FC4
:100EF00010305304D3007F2F20305304D3008316C7
:100F00002C08043A031D8C2F2B08043A031D8C2F48
:100F1000403083125304D3008312071C932F1030E8
:100F20005404D400962F20305404D4008316300883
:100F3000043A031DA32F2F08043A031DA32F4030AA
:100F400083125404D4008316A701C5018B138B1B95
:100F5000A72F80302504A5008B17A51F012E251C67
:100F6000B22F2723BF244B08C300C3080319CE2F79
:100F700002302607C40064304402031CC22F6430D0
:100F80004402C400440826060319AD2F2808023A7B
:100F90000319AD2F640025182723C22F8B138B1B39
:100FA000CF2F7F302505A5008B170C16AD2F83168C
:100FB0000313A001A101A601A701A8010630A90001
:100FC0000630AA008312DC01A030DD00E030DE0034
:100FD0004030DF006030E000C030E1008030E200EF
:100FE0002030E300C030E4006030E5002030E6004F
:100FF0008030E700A030E800E9014030EA00E0304E
:10100000EB00EC010130ED000330EE000230EF00A8
:101010000730F0000630F1000430F2000530F30034
:101020000E30F4000F30F5000D30F6000C30F700F4
:101030000930F8000830F9000A30FA000B30FB00E4
:101040008A110A12A62D0B1D36288B1E36288316F0
:101050000313A60A2608643A031D3028A601A70A2E
:10106000B708031935283703B7000B118312031390
:101070008C1E982883168C1E98280130A8000630F4
:101080008312180503194E281A088316A00083122C
:1010900018128316A001831218169828831334306F
:1010A0008400831620088407A00A83121A0880008F
:1010B00083162008043C03189228831236088316EE
:1010C00020060319672814302002031C9228A0016F
:1010D0002518922883123608143C031871281430FE
:1010E000B6008316D70183123608831657020318F9
:1010F0008D288312831334308400831657088407A5
:101100000008D80083128313203084008316570808
:10111000840758088000D70A732801302504A500E9
:101120000230A80014302002031C98281330A000BD
:1011300083120C1EBF2883160C1EBF2883120C12AC
:101140001430831621020318AB2883124A08831631
:101150002102031CB428981CAB280C12DF30250593
:10116000A50083120711BF2883128313483084001F
:10117000831621088407A10A0008831299007E0EB5
:1011800084007D0E8A007C0E8300FF0E7F0E090016
:00000001FF
